S014000050726F6A65746F5F4C4153442E73726563AA
S11300000C9424010C9451010C9441010C94410171
S11300100C9441010C9441010C9441010C94410154
S11300200C9441010C9441010C9441010C94410144
S11300300C9441010C9441010C9474010C94410101
S11300400C9441010C9441010C9441010C94410124
S11300500C9441010C9441010C9441010C94410114
S11300600C9441010C944101000000000000005F69
S113007000000007000700147F147F14242A7F2A3D
S11300801223130864623649552250000503000008
S1130090001C2241000041221C0014083E081408E0
S11300A0083E0808005030000008080808080060EE
S11300B060000020100804023E5149453E00427F82
S11300C0400042615149462141454B311814127F89
S11300D01027454545393C4A494930017109050312
S11300E03649494936064949291E0036360000007A
S11300F0563600000814224100141414141400414C
S11301002214080201510906324979413E7E111137
S1130110117E7F494949363E414141227F41412276
S11301201C7F494949417F090909013E4149497AEE
S11301307F0808087F00417F41002040413F017F44
S1130140081422417F404040407F020C027F7F041C
S113015008107F3E4141413E7F090909063E415155
S1130160215E7F09192946464949493101017F0128
S1130170013F4040403F1F2040201F3F4038403F48
S11301806314081463070870080761514945430064
S11301907F41410002040810200041417F00040215
S11301A00102044040404040000102040020545435
S11301B054787F48444438384444442038444448BC
S11301C07F3854545418087E0901020C5252523E8E
S11301D07F0804047800447D40002040443D007FB3
S11301E01028440000417F40007C041804787C08F7
S11301F004047838444444387C141414080814144F
S1130200187C7C080404084854545420043F444097
S1130210203C4040207C1C2040201C3C4030403C82
S113022044281028440C5050503C4464544C44001E
S11302300836410000007F00000041360800100825
S1130240081008000000000011241FBECFEFD8E002
S1130250DEBFCDBF11E0A0E0B1E0E8ECF6E002C003
S113026005900D92A231B107D9F723E0A2E1B1E0E4
S113027001C01D92AE30B207E1F70E94B0010C94A8
S113028062030C9400000E945F026AE080E00E9416
S1130290380362E08CE091E00E9427030E943D0352
S11302A008951F920F920FB60F9211248F93EF931C
S11302B0FF9380910A01815080930A01E0910B0120
S11302C0F0E0E050FF4F808188B9E0910A01F0E04E
S11302D0E050FF4F808185B9FF91EF918F910F908E
S11302E00FBE0F901F9018951F920F920FB60F928A
S11302F011242F938F939F93809112019091130156
S113030001969093130180931201883E934099F4CF
S113031080910B01815080930B01811108C089E009
S113032080930B0180910A01815080930A011092FD
S11303301301109212019F918F912F910F900FBE74
S11303400F901F9018959093C5008093C40088E97E
S11303508093C1008EE08093C2008FEF87B9089527
S113036087E690E00E94A3011AB88FEF8BB987B992
S113037084B983E0809369008DBB789492E094BD46
S113038085BD89EF87BD90936E0080E48AB90E9491
S113039007020E945F020E943D030E944301FDCFB9
S11303A095B19D7F95B9662329F095B1986095B96B
S11303B090E01FC095B1977F95B9FACF47E050E020
S11303C0491B5109282F30E002C0359527954A95DD
S11303D0E2F720FF04C025B1206125B903C025B18F
S11303E02F7E25B925B1206225B925B12F7D25B9E8
S11303F09F5F983018F385B1826085B9089560E0F5
S11304000E94D001089561E00E94D0010895CF9325
S1130410DF9384B1826084B984B1846084B984B187
S1130420886084B984B1806184B984B1806284B9FC
S113043085B1846085B985B1826085B983EC99E022
S11304400197F1F700C0000085B18B7F85B98BE57A
S113045094E40197F1F700C0000085B1846085B988
S113046085B18D7F85B981E20E94FF0183E10E94FD
S1130470FF0186E00E94FF0182EC0E94FF0180E2FE
S11304800E94FF0189E00E94FF0180E80E94FF01B1
S113049080E40E94FF01C0E0D0E004C080E00E943C
S11304A003022196C83F91E0D907C0F388E00E9477
S11304B0FF018CE00E94FF01DF91CF91089580E855
S11304C00E94FF0180E40E94FF0110920C0310922D
S11304D00D0380E090E005C0FC01EC5EFE4F10824D
S11304E00196883F21E09207B8F30895262F2695B8
S11304F02695269590E034E5239F800D911D1124C7
S1130500442379F0677021E030E002C0220F331FEA
S11305106A95E2F7FC01EC5EFE4F8081282B208374
S11305200895677021E030E002C0220F331F6A95FE
S1130530E2F7FC01EC5EFE4F2095808128232083A6
S11305400895EF92FF920F931F93CF93DF93E82EBA
S1130550F62E00E045C02E2D30E020523109802FC8
S11305606F2D0E945603F901EE0FFF1FEE0FFF1FC0
S1130570E20FF31FE80FF11DE859FF4FE491812FBB
S11305800E945603F0E002C0F595E7958A95E2F7DC
S1130590E0FF0AC060910D0380910C03610F41E0FC
S11305A0800F0E94760209C060910D0380910C03B4
S11305B0610F40E0800F0E9476021F5F01C010E0CF
S11305C0212F30E0CE01880F991F880F991F880FC3
S11305D0991F8C1B9D0B281739070CF4BCCF0F5F98
S11305E0202F30E0CF2DD0E0CE01880F991F880F47
S11305F0991F8C0F9D1F281739070CF3ECE0F3E0CB
S11306008F2D880F880F8F0D9081890F8F5F8083C6
S1130610843570F010920C03EDE0F3E08F2D880F19
S1130620880F880F982F9F198081890F8F5F80838F
S113063080910D03803320F010920C0310920D036F
S1130640DF91CF911F910F91FF90EF9008951F9329
S1130650CF93DF93EC01162F04C02196612F0E94E3
S1130660A10288818111F9CFDF91CF911F91089563
S113067080930C0360930D030895CF93DF9380E878
S11306800E94FF0180E40E94FF01C0E0D0E007C0A7
S1130690FE01EC5EFE4F80810E9403022196C83F5A
S11306A081E0D807A8F3DF91CF910895991B79E0F1
S11306B004C0991F961708F0961B881F7A95C9F7EE
S10B06C080950895F894FFCF22
S11306C87E306D79335B5F707F7B050947414D450B
S10506D800001C
S9030000FC
