:100000000C9424010C9485020C94AA020C944101D6
:100010000C9441010C9441010C9441010C94410158
:100020000C9441010C9441010C9441010C94410148
:100030000C9441010C9441010C94CA020C944101AE
:100040000C9441010C9441010C9404030C94410163
:100050000C9441010C9441010C9441010C94410118
:100060000C9441010C944101000000000000005F6D
:1000700000000007000700147F147F14242A7F2A41
:10008000122313086462364955225000050300000C
:10009000001C2241000041221C0014083E081408E4
:1000A000083E0808005030000008080808080060F2
:1000B00060000020100804023E5149453E00427F86
:1000C000400042615149462141454B311814127F8D
:1000D0001027454545393C4A494930017109050316
:1000E0003649494936064949291E0036360000007E
:1000F0005636000008142241001414141414004150
:100100002214080201510906324979413E7E11113B
:10011000117E7F494949363E414141227F4141227A
:100120001C7F494949417F090909013E4149497AF2
:100130007F0808087F00417F41002040413F017F48
:10014000081422417F404040407F020C027F7F0420
:1001500008107F3E4141413E7F090909063E415159
:10016000215E7F09192946464949493101017F012C
:10017000013F4040403F1F2040201F3F4038403F4C
:100180006314081463070870080761514945430068
:100190007F41410002040810200041417F00040219
:1001A0000102044040404040000102040020545439
:1001B00054787F48444438384444442038444448C0
:1001C0007F3854545418087E0901020C5252523E92
:1001D0007F0804047800447D40002040443D007FB7
:1001E0001028440000417F40007C041804787C08FB
:1001F00004047838444444387C1414140808141453
:10020000187C7C080404084854545420043F44409B
:10021000203C4040207C1C2040201C3C4030403C86
:1002200044281028440C5050503C4464544C440022
:100230000836410000007F00000041360800100829
:10024000081008000000000011241FBECFEFD8E006
:10025000DEBFCDBF11E0A0E0B1E0E6E4FAE002C00D
:1002600005900D92A436B107D9F723E0A4E6B1E0DA
:1002700001C01D92A536B207E1F70E943C030C9421
:1002800021050C940000AC0180E006C0FB01E80FE2
:10029000F11D90E390838F5F8230C0F3FB013196B4
:1002A0009A01ADECBCEC0E94120596958795969547
:1002B0008795969587959C01220F331F880F991F6C
:1002C000880F991F880F991F820F931F9A01281B6F
:1002D000390BC901805D80839A010E941205AC012F
:1002E000569547955695479556954795319741159B
:1002F0005105B1F608950E940F0460E080E00E946D
:10030000E80462E081E091E00E94D7046FE080E0C1
:100310000E94E80462E086E091E00E94D7046EE16A
:1003200080E00E94E80461E08BE091E00E94D70445
:1003300068E280E00E94E80461E084E191E00E94CC
:10034000D7040E94ED0408950E940F0460E080E04D
:100350000E94E80461E08EE191E00E94D70464E12C
:1003600080E00E94E80461E08BE291E00E94D70403
:100370006EE180E00E94E80461E084E391E00E9485
:10038000D70468E280E00E94E80461E08EE391E037
:100390000E94D7040E94ED040895CF93C82F0E94B5
:1003A0000F0460E080E00E94E80461E089E491E0ED
:1003B0000E94D70463E673E08C2F90E00E94430113
:1003C0006EE180E00E94E80462E083E693E00E9430
:1003D000D7040E94ED042FEF81EE94E0215080407D
:1003E0009040E1F700C00000CF9108950E940F04F3
:1003F0006FE08EE10E94E80464E081E591E00E94F4
:10040000D7040E94ED042FEF83ED90E3215080404C
:100410009040E1F700C000000E940F046FE08EE101
:100420000E94E80464E083E591E00E94D7040E9402
:10043000ED042FEF83ED90E3215080409040E1F7F1
:1004400000C000000E940F046FE08EE10E94E804EB
:1004500064E085E591E00E94D7040E94ED042FEF4F
:1004600083ED90E3215080409040E1F700C0000010
:100470000E940F046FE08FE00E94E80464E087E5CB
:1004800091E00E94D7040E94ED042FEF83ED90E3EA
:10049000215080409040E1F700C0000082E00895C4
:1004A0000E940F0460E08AE00E94E80462E08AE5AE
:1004B00091E00E94D70469E18AE00E94E80462E0CA
:1004C0008FE591E00E94D7040E94ED042FEF83E2B4
:1004D00094EF215080409040E1F700C0000080E0A0
:1004E00008959091C00095FFFCCF8093C6000895B9
:1004F0009093C5008093C40088E98093C1008EE08A
:100500008093C2008FEF87B908951F920F920FB6A4
:100510000F9211248F939F9380916701813029F46A
:1005200090910001955090930001823029F49091B0
:1005300000019A5090930001833029F480910001CA
:100540008F50809300019F918F910F900FBE0F905D
:100550001F9018951F920F920FB60F9211242F9390
:100560008F939F9380916801811103C081E08093F4
:1005700068012FEF80E792E0215080409040E1F742
:1005800000C000009F918F912F910F900FBE0F9090
:100590001F9018951F920F920FB60F9211242F9350
:1005A0008F939F9380916401823031F58091650132
:1005B0009091660101969093660180936501883E53
:1005C0009340D1F4809100018150809300011092FA
:1005D00066011092650181110FC083E08093640170
:1005E00083E6809300018FEF91EE24E081509040EC
:1005F0002040E1F700C000009F918F912F910F9054
:100600000FBE0F901F9018951F920F920FB60F926A
:1006100011242F933F934F935F936F937F938F9307
:100620009F93AF93BF93EF93FF938091C600813365
:1006300019F491E090936701823319F492E090935A
:100640006701833319F493E0909367010E9471026C
:1006500081E080936401FF91EF91BF91AF919F91F1
:100660008F917F916F915F914F913F912F910F905B
:100670000FBE0F901F90189587E690E00E947802B9
:100680001AB88FEF8BB987B984B983E0809369007A
:100690008DBB789492E094BD85BD89EF87BD909322
:1006A0006E0080E48AB90E94B7030E940F040E9482
:1006B000ED048091640181110CC080916801811169
:1006C00003C00E947B01F5CF813099F70E94A401FD
:1006D000F0CF813029F40E94F60180936401E9CFC4
:1006E000823029F4809100010E94CD01E2CF833055
:1006F00001F70E9450028093640110926801D9CFE3
:1007000095B19D7F95B9662329F095B1986095B90B
:1007100090E01FC095B1977F95B9FACF47E050E0C0
:10072000491B5109282F30E002C0359527954A957D
:10073000E2F720FF04C025B1206125B903C025B12F
:100740002F7E25B925B1206225B925B12F7D25B988
:100750009F5F983018F385B1826085B9089560E095
:100760000E948003089561E00E9480030895CF9362
:10077000DF9384B1826084B984B1846084B984B128
:10078000886084B984B1806184B984B1806284B99D
:1007900085B1846085B985B1826085B983EC99E0C3
:1007A0000197F1F700C0000085B18B7F85B98BE51B
:1007B00094E40197F1F700C0000085B1846085B929
:1007C00085B18D7F85B981E20E94AF0383E10E94EC
:1007D000AF0386E00E94AF0382EC0E94AF0380E289
:1007E0000E94AF0389E00E94AF0380E80E94AF033C
:1007F00080E40E94AF03C0E0D0E004C080E00E942B
:10080000B3032196C83F91E0D907C0F388E00E9466
:10081000AF038CE00E94AF03DF91CF91089580E891
:100820000E94AF0380E40E94AF0310926103109214
:10083000620380E090E005C0FC01E759FE4F1082A2
:100840000196883F21E09207B8F30895262F269558
:100850002695269590E034E5239F800D911D112467
:10086000442379F0677021E030E002C0220F331F8B
:100870006A95E2F7FC01E759FE4F8081282B20831F
:100880000895677021E030E002C0220F331F6A959F
:10089000E2F7FC01E759FE4F209580812823208351
:1008A0000895EF92FF920F931F93CF93DF93E82E5B
:1008B000F62E00E045C02E2D30E020523109802F69
:1008C0006F2D0E940605F901EE0FFF1FEE0FFF1FAF
:1008D000E20FF31FE80FF11DE859FF4FE491812F5C
:1008E0000E940605F0E002C0F595E7958A95E2F7CB
:1008F000E0FF0AC06091620380916103610F41E0F3
:10090000800F0E94260409C06091620380916103F8
:10091000610F40E0800F0E9426041F5F01C010E0BD
:10092000212F30E0CE01880F991F880F991F880F63
:10093000991F8C1B9D0B281739070CF4BCCF0F5F38
:10094000202F30E0CF2DD0E0CE01880F991F880FE7
:10095000991F8C0F9D1F281739070CF3E1E6F3E070
:100960008F2D880F880F8F0D9081890F8F5F808367
:10097000843570F010926103E2E6F3E08F2D880F6A
:10098000880F880F982F9F198081890F8F5F808330
:1009900080916203803320F0109261031092620311
:1009A000DF91CF911F910F91FF90EF9008951F93CA
:1009B000CF93DF93EC01162F04C02196612F0E9484
:1009C000510488818111F9CFDF91CF911F91089552
:1009D00080936103609362030895CF93DF9380E86F
:1009E0000E94AF0380E40E94AF03C0E0D0E007C0E4
:1009F000FE01E759FE4F80810E94B3032196C83F54
:100A000081E0D807A8F3DF91CF910895991B79E091
:100A100004C0991F961708F0961B881F7A95C9F78E
:100A200080950895A29FB001B39FC001A39F700D50
:100A3000811D1124911DB29F700D811D1124911DE6
:060A40000895F894FFCFB9
:100A46006342555A5A005749524500556C74696DB0
:100A560061746500436F756E74646F776E00436FE3
:100A66006E66696775726163616F00313A2046612F
:100A760063696C00323A204E6F726D616C00333AD6
:100A8600204469666963696C0056616C656E646FC3
:100A960000330032003100474F0047414D45004FBB
:040AA600564552005F
:00000001FF
