:100000000C9424010C94AC020C94E6020C94410173
:100010000C9441010C9441010C9441010C94410158
:100020000C9441010C9441010C9475030C94410112
:100030000C9441010C9441010C9406030C94410171
:100040000C9441010C9441010C943D030C9441012A
:100050000C9441010C9441010C9441010C94410118
:100060000C9441010C944101000000000000005F6D
:1000700000000007000700147F147F14242A7F2A41
:10008000122313086462364955225000050300000C
:10009000001C2241000041221C0014083E081408E4
:1000A000083E0808005030000008080808080060F2
:1000B00060000020100804023E5149453E00427F86
:1000C000400042615149462141454B311814127F8D
:1000D0001027454545393C4A494930017109050316
:1000E0003649494936064949291E0036360000007E
:1000F0005636000008142241001414141414004150
:100100002214080201510906324979413E7E11113B
:10011000117E7F494949363E414141227F4141227A
:100120001C7F494949417F090909013E4149497AF2
:100130007F0808087F00417F41002040413F017F48
:10014000081422417F404040407F020C027F7F0420
:1001500008107F3E4141413E7F090909063E415159
:10016000215E7F09192946464949493101017F012C
:10017000013F4040403F1F2040201F3F4038403F4C
:100180006314081463070870080761514945430068
:100190007F41410002040810200041417F00040219
:1001A0000102044040404040000102040020545439
:1001B00054787F48444438384444442038444448C0
:1001C0007F3854545418087E0901020C5252523E92
:1001D0007F0804047800447D40002040443D007FB7
:1001E0001028440000417F40007C041804787C08FB
:1001F00004047838444444387C1414140808141453
:10020000187C7C080404084854545420043F44409B
:10021000203C4040207C1C2040201C3C4030403C86
:1002200044281028440C5050503C4464544C440022
:100230000836410000007F00000041360800100829
:10024000081008000000000011241FBECFEFD8E006
:10025000DEBFCDBF11E0A0E0B1E0E8ECFBE002C002
:1002600005900D92A436B107D9F723E0A4E6B1E0DA
:1002700001C01D92AB36B207E1F70E94BD030C949A
:10028000E2050C94000090E006C0FB01E90FF11DAF
:1002900020E320839F5F9230C0F3FB0131969DECF9
:1002A000899F912D1124969596959695392F330F08
:1002B000232F220F220F230F821B805D8083892F23
:1002C00031979111ECCF08950E94D00460E080E056
:1002D0000E94A90562E081E091E00E9498056FE02C
:1002E00080E00E94A90562E086E091E00E94980506
:1002F0006EE180E00E94A90561E08BE091E00E9440
:10030000980568E280E00E94A90561E084E191E03F
:100310000E9498050E94AE0508950E94D00460E0F6
:1003200080E00E94A90561E08EE191E00E949805BD
:1003300064E180E00E94A90561E08BE291E00E9407
:1003400098056EE180E00E94A90561E084E391E0F8
:100350000E94980568E280E00E94A90561E08EE3B2
:1003600091E00E9498050E94AE050895CF93C82F92
:100370000E94D00460E080E00E94A90561E089E469
:1003800091E00E94980563E673E08C2F0E94430180
:100390006FE084E10E94A90564E083E693E00E9497
:1003A00098050E94AE052FEF81EE94E02150804029
:1003B0009040E1F700C00000CF9108950E94D00462
:1003C0006FE08EE10E94A90564E08CE491E00E9458
:1003D00098050E94AE052FEF83ED90E321508040F9
:1003E0009040E1F700C000000E94D0046FE08EE171
:1003F0000E94A90564E08EE491E00E9498050E94A5
:10040000AE052FEF83ED90E3215080409040E1F75F
:1004100000C000000E94D0046FE08EE10E94A90598
:1004200064E080E591E00E9498050E94AE052FEF00
:1004300083ED90E3215080409040E1F700C0000040
:100440000E94D0046FE08FE00E94A90564E089E477
:1004500091E00E9498050E94AE052FEF83ED90E396
:10046000215080409040E1F700C0000082E00895F4
:100470000E94D00460E084E10E94A90562E082E568
:1004800091E00E94980569E184E10E94A90562E07B
:1004900087E591E00E9498050E94AE0588B18064CE
:1004A00088B92FEF87E893E1215080409040E1F731
:1004B00000C0000088B18F7B88B92FEF83E294EFF2
:1004C000215080409040E1F700C0000080E0089596
:1004D0000E94D00460E084E10E94A90562E08CE5FE
:1004E00091E00E94980569E184E10E94A90562E01B
:1004F00080E691E00E9498050E94AE0588B1806474
:1005000088B92FEF87E893E1215080409040E1F7D0
:1005100000C0000088B18F7B88B92FEF8BE792E98C
:10052000215080409040E1F700C0000080E0089535
:100530009091C00095FFFCCF8093C60008959093E2
:10054000C5008093C40088E98093C1008EE0809349
:10055000C2008FEF87B908951F920F920FB60F92C6
:1005600011242F938F939F9380916401823031F5F2
:1005700088B1806488B92FEF81EE94E021508040EB
:100580009040E1F700C0000088B18F7B88B980916E
:100590006701813029F490910001955090930001FA
:1005A000823029F4909100019A5090930001833099
:1005B00029F4809100018F50809300019F918F91C9
:1005C0002F910F900FBE0F901F9018951F920F92B2
:1005D0000FB60F9211242F938F939F9380916801F0
:1005E000811103C081E0809368012FEF80E792E0E2
:1005F000215080409040E1F700C000009F918F9112
:100600002F910F900FBE0F901F9018951F920F9271
:100610000FB60F9211242F938F939F9380916401B3
:10062000823019F580916501909166010196909351
:10063000660180936501883E9340B9F48091000182
:100640008150809300011092660110926501811122
:100650000CC083E08093640183E6809300018FE9FE
:100660009FE00197F1F700C000009F918F912F91BB
:100670000F900FBE0F901F9018951F920F920FB6FC
:100680000F9211242F933F934F935F936F937F9318
:100690008F939F93AF93BF93EF93FF938091C60087
:1006A000813319F491E090936701823319F492E059
:1006B00090936701833319F493E0909367010E944C
:1006C000980281E080936401FF91EF91BF91AF9117
:1006D0009F918F917F916F915F914F913F912F915A
:1006E0000F900FBE0F901F9018951F920F920FB68C
:1006F0000F9211242F933F936F937F938F939F9328
:10070000AF93BF93EF93FF93E1E8F0E0908180E433
:1007100089278083808186FD09C080918600909121
:10072000870090936A038093690318C02091860024
:10073000309187008091690390916A03281B390BDF
:10074000AFE9B6E40E94D305929582958F70892710
:100750009F7089279093680380936703FF91EF91BF
:10076000BF91AF919F918F917F916F913F912F9109
:100770000F900FBE0F901F90189587E690E00E9493
:100780009F021AB88FEF8BB920E22AB987B1806433
:1007900087B992E094B98DEF85B982E480938100A6
:1007A00020936F0083E0809369008DBB789422EAE8
:1007B00024BD85BD89EF87BD88EC88BD90936E0010
:1007C0000E9478040E94D0040E94AE0585B1826028
:1007D00085B925E32A95F1F7000085B18D7F85B9AC
:1007E00088B18F7B88B9809164018230E1F028F470
:1007F000882341F0813091F0E9CF833031F18430AA
:1008000091F1E4CF80916801811103C00E946401DD
:10081000DDCF8130D9F60E948D01D8CF0E94DE0154
:1008200080936401D3CF809100010E94B601809132
:100830006703909168038F3A21E0920738F6449756
:1008400028F684E080936401C1CF0E94380280932F
:1008500064011092680183E68093000110926601A2
:1008600010926501B3CF0E946802809364011092D8
:10087000680183E680930001109266011092650181
:10088000A5CF98B19D7F98B9662329F098B198605B
:1008900098B990E01FC098B1977F98B9FACF47E018
:1008A00050E0491B5109282F30E002C035952795AB
:1008B0004A95E2F720FF04C028B1206128B903C09F
:1008C00028B12F7E28B928B1206228B928B12F7D00
:1008D00028B99F5F983018F388B1826088B908956D
:1008E00060E00E944104089561E00E94410408957F
:1008F000CF93DF9387B1826087B987B1846087B96E
:1009000087B1886087B987B1806187B987B1806214
:1009100087B988B1846088B988B1826088B983EC6E
:1009200099E00197F1F700C0000088B18B7F88B98A
:100930008BE594E40197F1F700C0000088B1846072
:1009400088B988B18D7F88B981E20E94700483E103
:100950000E94700486E00E94700482EC0E94700481
:1009600080E20E94700489E00E94700480E80E9486
:10097000700480E40E947004C0E0D0E004C080E015
:100980000E9474042196C83F91E0D907C0F388E023
:100990000E9470048CE00E947004DF91CF91089552
:1009A00080E80E94700480E40E9470041092610349
:1009B0001092620380E090E005C0FC01E759FE4F11
:1009C00010820196883F21E09207B8F30895262F00
:1009D00026952695269590E034E5239F800D911D60
:1009E0001124442379F0677021E030E002C0220F27
:1009F000331F6A95E2F7FC01E759FE4F8081282BEF
:100A000020830895677021E030E002C0220F331F79
:100A10006A95E2F7FC01E759FE4F20958081282373
:100A200020830895EF92FF920F931F93CF93DF934C
:100A3000E82EF62E00E045C02E2D30E02052310980
:100A4000802F6F2D0E94C705F901EE0FFF1FEE0FDB
:100A5000FF1FE20FF31FE80FF11DE859FF4FE4916C
:100A6000812F0E94C705F0E002C0F595E7958A95B1
:100A7000E2F7E0FF0AC06091620380916103610FB9
:100A800041E0800F0E94E70409C0609162038091F9
:100A90006103610F40E0800F0E94E7041F5F01C007
:100AA00010E0212F30E0CE01880F991F880F991F89
:100AB000880F991F8C1B9D0B281739070CF4BCCF8E
:100AC0000F5F202F30E0CF2DD0E0CE01880F991F8F
:100AD000880F991F8C0F9D1F281739070CF3E1E62B
:100AE000F3E08F2D880F880F8F0D9081890F8F5F16
:100AF0008083843570F010926103E2E6F3E08F2D7D
:100B0000880F880F880F982F9F198081890F8F5F1A
:100B1000808380916203803320F0109261031092F1
:100B20006203DF91CF911F910F91FF90EF90089595
:100B30001F93CF93DF93EC01162F04C02196612FF2
:100B40000E94120588818111F9CFDF91CF911F9109
:100B5000089580936103609362030895CF93DF93B8
:100B600080E80E94700480E40E947004C0E0D0E03D
:100B700007C0FE01E759FE4F80810E947404219650
:100B8000C83F81E0D807A8F3DF91CF910895991B62
:100B900079E004C0991F961708F0961B881F7A9574
:100BA000C9F780950895A29FB001B39FC001A39F8C
:100BB000700D811D1124911DB29F700D811D112496
:080BC000911D0895F894FFCF88
:100BC8006342555A5A005749524500556C74696D2D
:100BD80061746500436F756E74646F776E00436F60
:100BE8006E66696775726163616F00313A204661AC
:100BF80063696C00323A204E6F726D616C00333A53
:100C0800204469666963696C00474F00330032000D
:100C1800310047414D45004F56455200594F550048
:040C280057494E00DA
:00000001FF
