S014000050726F6A65746F5F4C4153442E73726563AA
S11300000C9434000C9453000C9451000C94510043
S11300100C9451000C9451000C9451000C94510018
S11300200C9451000C9451000C9451000C94510008
S11300300C9451000C9451000C9476000C945100D3
S11300400C9451000C9451000C9451000C945100E8
S11300500C9451000C9451000C9451000C945100D8
S11300600C9451000C94510011241FBECFEFD8E022
S1130070DEBFCDBF11E0A0E0B1E0E2E9F1E002C0F3
S113008005900D92AC30B107D9F721E0ACE0B1E0B6
S113009001C01D92AE30B207E1F70E94A5000C9496
S11300A0C7000C9400001F920F920FB60F921124F8
S11300B08F93EF93FF9380910A01815080930A01FB
S11300C0E0910B01F0E0E050FF4F808188B9E091AE
S11300D00A01F0E0E050FF4F808185B9FF91EF9174
S11300E08F910F900FBE0F901F9018951F920F9233
S11300F00FB60F9211242F938F939F9380910C012D
S113010090910D01019690930D0180930C01883E0E
S1130110934099F480910B01815080930B018111DC
S113012008C089E080930B0180910A01815080937B
S11301300A0110920D0110920C019F918F912F9141
S11301400F900FBE0F901F9018951AB88FEF8BB9B0
S113015087B984B983E0809369008DBB789492E079
S113016094BD85BD89EF87BD90936E0080E48AB904
S1130170E0910B01F0E0E050FF4F808188B9E091FD
S11301800A01F0E0E050FF4F808185B9F1CFF89487
S1050190FFCF9B
S10F01927E306D79335B5F707F7B050964
S9030000FC
