S014000050726F6A65746F5F4C4153442E73726563AA
S11300000C9434000C9453000C9451000C94510043
S11300100C9451000C9451000C9451000C94510018
S11300200C9451000C9451000C9451000C94510008
S11300300C9451000C9451000C9451000C945100F8
S11300400C9451000C9451000C9451000C945100E8
S11300500C9451000C9451000C9451000C945100D8
S11300600C9451000C94510011241FBECFEFD8E022
S1130070DEBFCDBF11E0A0E0B1E0EEE8F1E002C0E8
S113008005900D92AA30B107D9F721E0AAE0B1E0BA
S113009001C01D92AC30B207E1F70E9476000C94C7
S11300A0C5000C9400001F920F920FB60F921124FA
S11300B08F93EF93FF9380910B01815080930B01F9
S11300C0E0910A01F0E0E050FF4F808188B9E091AF
S11300D00B01F0E0E050FF4F808185B9FF91EF9173
S11300E08F910F900FBE0F901F9018951AB88FEF35
S11300F08BB987B984B983E0809369008DBB789408
S113010083EA84BD85E085BD17BC80E48AB989E0B3
S113011080930B0125C0F0E0E050FF4F808185B94A
S113012089E080930A0113C0F0E0E050FF4F808122
S113013088B92FEF83ED90E3215080409040E1F7A0
S113014000C0000080910A01815080930A01E0916F
S11301500A01E111E9CF80910B01815080930B01D9
S1130160E0910B01E111D7CF91E080910A01863033
S113017008F090E081E0E63008F080E0892319F08F
S11101808FEF87BDC4CF17BCC2CFF894FFCF5A
S10D018E7E306D79335B5F707F7B78
S9030000FC
