:100000000C9424010C9414020C9439020C944101B8
:100010000C9441010C9441010C9441010C94410158
:100020000C9441010C9441010C9441010C94410148
:100030000C9441010C9441010C9459020C9441011F
:100040000C9441010C9441010C946E020C944101FA
:100050000C9441010C9441010C9441010C94410118
:100060000C9441010C944101000000000000005F6D
:1000700000000007000700147F147F14242A7F2A41
:10008000122313086462364955225000050300000C
:10009000001C2241000041221C0014083E081408E4
:1000A000083E0808005030000008080808080060F2
:1000B00060000020100804023E5149453E00427F86
:1000C000400042615149462141454B311814127F8D
:1000D0001027454545393C4A494930017109050316
:1000E0003649494936064949291E0036360000007E
:1000F0005636000008142241001414141414004150
:100100002214080201510906324979413E7E11113B
:10011000117E7F494949363E414141227F4141227A
:100120001C7F494949417F090909013E4149497AF2
:100130007F0808087F00417F41002040413F017F48
:10014000081422417F404040407F020C027F7F0420
:1001500008107F3E4141413E7F090909063E415159
:10016000215E7F09192946464949493101017F012C
:10017000013F4040403F1F2040201F3F4038403F4C
:100180006314081463070870080761514945430068
:100190007F41410002040810200041417F00040219
:1001A0000102044040404040000102040020545439
:1001B00054787F48444438384444442038444448C0
:1001C0007F3854545418087E0901020C5252523E92
:1001D0007F0804047800447D40002040443D007FB7
:1001E0001028440000417F40007C041804787C08FB
:1001F00004047838444444387C1414140808141453
:10020000187C7C080404084854545420043F44409B
:10021000203C4040207C1C2040201C3C4030403C86
:1002200044281028440C5050503C4464544C440022
:100230000836410000007F00000041360800100829
:10024000081008000000000011241FBECFEFD8E006
:10025000DEBFCDBF11E0A0E0B1E0E0EFF8E002C00A
:1002600005900D92A035B107D9F723E0A0E5B1E0E4
:1002700001C01D92AE34B207E1F70E94A3020C94B4
:1002800076040C940000AC0180E006C0FB01E80F8E
:10029000F11D90E390838F5F8230C0F3FB013196B4
:1002A0009A01ADECBCEC0E946704969587959695F3
:1002B0008795969587959C01220F331F880F991F6C
:1002C000880F991F880F991F820F931F9A01281B6F
:1002D000390BC901805D80839A010E946704AC01DB
:1002E000569547955695479556954795319741159B
:1002F0005105B1F608950E94640360E080E00E9419
:100300003D0462E080E091E00E942C046FE080E018
:100310000E943D0462E085E091E00E942C046EE1C1
:1003200080E00E943D0461E08AE091E00E942C049C
:1003300068E280E00E943D0461E083E191E00E9478
:100340002C040E94420408950E94640360E080E04F
:100350000E943D0461E08DE191E00E942C0464E183
:1003600080E00E943D0461E08AE291E00E942C045A
:100370006EE180E00E943D0461E083E391E00E9431
:100380002C0468E280E00E943D0461E08DE391E08E
:100390000E942C040E94420408951F93CF93DF9380
:1003A00000D0CDB7DEB7182F0E94640360E080E074
:1003B0000E943D0461E088E491E00E942C04BE01AB
:1003C0006F5F7F4F812F90E00E9443016EE180E0DC
:1003D0000E943D0462E0CE0101960E942C040E941E
:1003E00042042FEF89E698E1215080409040E1F7E8
:1003F00000C000000F900F90DF91CF911F910895E2
:100400009091C00095FFFCCF8093C6000895909313
:10041000C5008093C40088E98093C1008EE080937A
:10042000C2008FEF87B908951F920F920FB60F92F7
:1004300011248F939F9380915201813029F49091E0
:100440005101955090935101823029F490915101BE
:100450009A5090935101833029F4809151018F502B
:10046000809351019F918F910F900FBE0F901F901D
:1004700018951F920F920FB60F9211242F938F93FE
:100480009F9380915301811103C081E080935301B8
:100490002FEF80E792E0215080409040E1F700C0CC
:1004A00000009F918F912F910F900FBE0F901F9082
:1004B00018951F920F920FB60F9211248F9380916F
:1004C0005201882329F0809150018F5F8093500161
:1004D0008F910F900FBE0F901F9018951F920F9243
:1004E0000FB60F9211242F933F934F935F936F9307
:1004F0007F938F939F93AF93BF93EF93FF938091DD
:10050000C600813319F491E090935201823319F4BB
:1005100092E090935201833319F493E09093520147
:100520000E940002FF91EF91BF91AF919F918F9137
:100530007F916F915F914F913F912F910F900FBEDF
:100540000F901F90189587E690E00E9407021AB856
:100550008FEF8BB987B984B983E0809369008DBB35
:10056000789492E094BD85BD89EF87BD90936E002D
:1005700080E48AB90E940C030E9464030E94420432
:100580008091520181110CC080915301811103C0EF
:100590000E947B01F5CF813099F70E94A401F0CF32
:1005A000809151010E94CD01EBCF95B19D7F95B90E
:1005B000662329F095B1986095B990E01FC095B178
:1005C000977F95B9FACF47E050E0491B5109282F92
:1005D00030E002C0359527954A95E2F720FF04C028
:1005E00025B1206125B903C025B12F7E25B925B1DC
:1005F000206225B925B12F7D25B99F5F983018F36A
:1006000085B1826085B9089560E00E94D5020895A1
:1006100061E00E94D5020895CF93DF9384B1826098
:1006200084B984B1846084B984B1886084B984B1A8
:10063000806184B984B1806284B985B1846085B9F0
:1006400085B1826085B983EC99E00197F1F700C02C
:10065000000085B18B7F85B98BE594E40197F1F7B4
:1006600000C0000085B1846085B985B18D7F85B9F2
:1006700081E20E94040383E10E94040386E00E9459
:10068000040382EC0E94040380E20E94040389E0D8
:100690000E94040380E80E94040380E40E94040393
:1006A000C0E0D0E004C080E00E9408032196C83F6B
:1006B00091E0D907C0F388E00E9404038CE00E9417
:1006C0000403DF91CF91089580E80E94040380E441
:1006D0000E94040310924C0310924D0380E090E0BE
:1006E00005C0FC01EC5AFE4F10820196883F21E0C4
:1006F0009207B8F30895262F26952695269590E023
:1007000034E5239F800D911D1124442379F06770F7
:1007100021E030E002C0220F331F6A95E2F7FC01AE
:10072000EC5AFE4F8081282B20830895677021E0CA
:1007300030E002C0220F331F6A95E2F7FC01EC5A49
:10074000FE4F20958081282320830895EF92FF9209
:100750000F931F93CF93DF93E82EF62E00E045C052
:100760002E2D30E020523109802F6F2D0E945B0426
:10077000F901EE0FFF1FEE0FFF1FE20FF31FE80F4F
:10078000F11DE859FF4FE491812F0E945B04F0E0D6
:1007900002C0F595E7958A95E2F7E0FF0AC06091FF
:1007A0004D0380914C03610F41E0800F0E947B0359
:1007B00009C060914D0380914C03610F40E0800FB0
:1007C0000E947B031F5F01C010E0212F30E0CE01AB
:1007D000880F991F880F991F880F991F8C1B9D0BDD
:1007E000281739070CF4BCCF0F5F202F30E0CF2D36
:1007F000D0E0CE01880F991F880F991F8C0F9D1F85
:10080000281739070CF3ECE4F3E08F2D880F880FDD
:100810008F0D9081890F8F5F8083843570F01092E7
:100820004C03EDE4F3E08F2D880F880F880F982F8D
:100830009F198081890F8F5F808380914D03803362
:1008400020F010924C0310924D03DF91CF911F9135
:100850000F91FF90EF9008951F93CF93DF93EC01DA
:10086000162F04C02196612F0E94A6038881811152
:10087000F9CFDF91CF911F91089580934C0360933E
:100880004D030895CF93DF9380E80E94040380E432
:100890000E940403C0E0D0E007C0FE01EC5AFE4F06
:1008A00080810E9408032196C83F81E0D807A8F301
:1008B000DF91CF910895991B79E004C0991F961795
:1008C00008F0961B881F7A95C9F780950895A29F16
:1008D000B001B39FC001A39F700D811D1124911D14
:1008E000B29F700D811D1124911D0895F894FFCFC2
:1008F00042555A5A005749524500556C74696D610A
:10090000746500436F756E74646F776E00436F6E2D
:1009100066696775726163616F00313A2046616391
:10092000696C00323A204E6F726D616C00333A2070
:100930004469666963696C0056616C656E646F003A
:00000001FF
